{
  "_format": "hh-sol-artifact-1",
  "contractName": "AnonymousArtAuthentication",
  "sourceName": "contracts/AnonymousArtAuthentication.sol",
  "abi": [
    {
      "inputs": [],
      "stateMutability": "nonpayable",
      "type": "constructor"
    },
    {
      "anonymous": false,
      "inputs": [
        {
          "indexed": true,
          "internalType": "uint256",
          "name": "artworkId",
          "type": "uint256"
        },
        {
          "indexed": false,
          "internalType": "bool",
          "name": "isAuthentic",
          "type": "bool"
        },
        {
          "indexed": false,
          "internalType": "uint256",
          "name": "finalScore",
          "type": "uint256"
        }
      ],
      "name": "ArtworkAuthenticated",
      "type": "event"
    },
    {
      "anonymous": false,
      "inputs": [
        {
          "indexed": true,
          "internalType": "uint256",
          "name": "artworkId",
          "type": "uint256"
        },
        {
          "indexed": true,
          "internalType": "address",
          "name": "owner",
          "type": "address"
        }
      ],
      "name": "ArtworkSubmitted",
      "type": "event"
    },
    {
      "anonymous": false,
      "inputs": [
        {
          "indexed": true,
          "internalType": "uint256",
          "name": "artworkId",
          "type": "uint256"
        },
        {
          "indexed": true,
          "internalType": "uint256",
          "name": "expertId",
          "type": "uint256"
        }
      ],
      "name": "AuthenticationSubmitted",
      "type": "event"
    },
    {
      "anonymous": false,
      "inputs": [
        {
          "indexed": true,
          "internalType": "uint256",
          "name": "expertId",
          "type": "uint256"
        },
        {
          "indexed": true,
          "internalType": "address",
          "name": "expert",
          "type": "address"
        }
      ],
      "name": "ExpertRegistered",
      "type": "event"
    },
    {
      "anonymous": false,
      "inputs": [
        {
          "indexed": true,
          "internalType": "uint256",
          "name": "expertId",
          "type": "uint256"
        },
        {
          "indexed": true,
          "internalType": "address",
          "name": "expert",
          "type": "address"
        }
      ],
      "name": "ExpertVerified",
      "type": "event"
    },
    {
      "inputs": [
        {
          "internalType": "uint256",
          "name": "",
          "type": "uint256"
        },
        {
          "internalType": "uint256",
          "name": "",
          "type": "uint256"
        }
      ],
      "name": "artworkExperts",
      "outputs": [
        {
          "internalType": "uint256",
          "name": "",
          "type": "uint256"
        }
      ],
      "stateMutability": "view",
      "type": "function"
    },
    {
      "inputs": [
        {
          "internalType": "uint256",
          "name": "",
          "type": "uint256"
        }
      ],
      "name": "artworks",
      "outputs": [
        {
          "internalType": "uint256",
          "name": "id",
          "type": "uint256"
        },
        {
          "internalType": "address",
          "name": "owner",
          "type": "address"
        },
        {
          "internalType": "euint32",
          "name": "encryptedMetadata",
          "type": "bytes32"
        },
        {
          "internalType": "euint8",
          "name": "encryptedCondition",
          "type": "bytes32"
        },
        {
          "internalType": "bool",
          "name": "isSubmitted",
          "type": "bool"
        },
        {
          "internalType": "bool",
          "name": "isAuthenticated",
          "type": "bool"
        },
        {
          "internalType": "uint256",
          "name": "submissionTime",
          "type": "uint256"
        },
        {
          "internalType": "uint256",
          "name": "authenticationCount",
          "type": "uint256"
        },
        {
          "internalType": "uint256",
          "name": "expertConsensus",
          "type": "uint256"
        }
      ],
      "stateMutability": "view",
      "type": "function"
    },
    {
      "inputs": [
        {
          "internalType": "uint256",
          "name": "",
          "type": "uint256"
        },
        {
          "internalType": "uint256",
          "name": "",
          "type": "uint256"
        }
      ],
      "name": "authentications",
      "outputs": [
        {
          "internalType": "uint256",
          "name": "artworkId",
          "type": "uint256"
        },
        {
          "internalType": "uint256",
          "name": "expertId",
          "type": "uint256"
        },
        {
          "internalType": "euint8",
          "name": "encryptedAuthenticity",
          "type": "bytes32"
        },
        {
          "internalType": "euint8",
          "name": "encryptedConfidence",
          "type": "bytes32"
        },
        {
          "internalType": "bool",
          "name": "isSubmitted",
          "type": "bool"
        },
        {
          "internalType": "uint256",
          "name": "timestamp",
          "type": "uint256"
        }
      ],
      "stateMutability": "view",
      "type": "function"
    },
    {
      "inputs": [
        {
          "internalType": "uint256",
          "name": "",
          "type": "uint256"
        }
      ],
      "name": "experts",
      "outputs": [
        {
          "internalType": "uint256",
          "name": "id",
          "type": "uint256"
        },
        {
          "internalType": "address",
          "name": "expertAddress",
          "type": "address"
        },
        {
          "internalType": "euint8",
          "name": "encryptedCredentials",
          "type": "bytes32"
        },
        {
          "internalType": "bool",
          "name": "isVerified",
          "type": "bool"
        },
        {
          "internalType": "uint256",
          "name": "authenticationsCompleted",
          "type": "uint256"
        },
        {
          "internalType": "uint256",
          "name": "successRate",
          "type": "uint256"
        }
      ],
      "stateMutability": "view",
      "type": "function"
    },
    {
      "inputs": [
        {
          "internalType": "uint256",
          "name": "artworkId",
          "type": "uint256"
        },
        {
          "internalType": "bool",
          "name": "isAuthentic",
          "type": "bool"
        },
        {
          "internalType": "uint256",
          "name": "finalScore",
          "type": "uint256"
        }
      ],
      "name": "finalizeAuthentication",
      "outputs": [],
      "stateMutability": "nonpayable",
      "type": "function"
    },
    {
      "inputs": [
        {
          "internalType": "uint256",
          "name": "artworkId",
          "type": "uint256"
        }
      ],
      "name": "getArtworkExperts",
      "outputs": [
        {
          "internalType": "uint256[]",
          "name": "",
          "type": "uint256[]"
        }
      ],
      "stateMutability": "view",
      "type": "function"
    },
    {
      "inputs": [
        {
          "internalType": "uint256",
          "name": "artworkId",
          "type": "uint256"
        }
      ],
      "name": "getArtworkInfo",
      "outputs": [
        {
          "internalType": "address",
          "name": "artworkOwner",
          "type": "address"
        },
        {
          "internalType": "bool",
          "name": "isSubmitted",
          "type": "bool"
        },
        {
          "internalType": "bool",
          "name": "isAuthenticated",
          "type": "bool"
        },
        {
          "internalType": "uint256",
          "name": "submissionTime",
          "type": "uint256"
        },
        {
          "internalType": "uint256",
          "name": "authenticationCount",
          "type": "uint256"
        },
        {
          "internalType": "uint256",
          "name": "expertConsensus",
          "type": "uint256"
        }
      ],
      "stateMutability": "view",
      "type": "function"
    },
    {
      "inputs": [
        {
          "internalType": "uint256",
          "name": "expertId",
          "type": "uint256"
        }
      ],
      "name": "getExpertInfo",
      "outputs": [
        {
          "internalType": "address",
          "name": "expertAddress",
          "type": "address"
        },
        {
          "internalType": "bool",
          "name": "isVerified",
          "type": "bool"
        },
        {
          "internalType": "uint256",
          "name": "authenticationsCompleted",
          "type": "uint256"
        },
        {
          "internalType": "uint256",
          "name": "successRate",
          "type": "uint256"
        }
      ],
      "stateMutability": "view",
      "type": "function"
    },
    {
      "inputs": [],
      "name": "nextArtworkId",
      "outputs": [
        {
          "internalType": "uint256",
          "name": "",
          "type": "uint256"
        }
      ],
      "stateMutability": "view",
      "type": "function"
    },
    {
      "inputs": [],
      "name": "nextExpertId",
      "outputs": [
        {
          "internalType": "uint256",
          "name": "",
          "type": "uint256"
        }
      ],
      "stateMutability": "view",
      "type": "function"
    },
    {
      "inputs": [],
      "name": "owner",
      "outputs": [
        {
          "internalType": "address",
          "name": "",
          "type": "address"
        }
      ],
      "stateMutability": "view",
      "type": "function"
    },
    {
      "inputs": [],
      "name": "protocolId",
      "outputs": [
        {
          "internalType": "uint256",
          "name": "",
          "type": "uint256"
        }
      ],
      "stateMutability": "pure",
      "type": "function"
    },
    {
      "inputs": [
        {
          "internalType": "uint8",
          "name": "_credentialsHash",
          "type": "uint8"
        }
      ],
      "name": "registerExpert",
      "outputs": [
        {
          "internalType": "uint256",
          "name": "",
          "type": "uint256"
        }
      ],
      "stateMutability": "nonpayable",
      "type": "function"
    },
    {
      "inputs": [
        {
          "internalType": "uint256",
          "name": "",
          "type": "uint256"
        }
      ],
      "name": "requestIdToArtworkId",
      "outputs": [
        {
          "internalType": "uint256",
          "name": "",
          "type": "uint256"
        }
      ],
      "stateMutability": "view",
      "type": "function"
    },
    {
      "inputs": [
        {
          "internalType": "uint32",
          "name": "_metadataHash",
          "type": "uint32"
        },
        {
          "internalType": "uint8",
          "name": "_condition",
          "type": "uint8"
        },
        {
          "internalType": "uint256",
          "name": "_requiredConsensus",
          "type": "uint256"
        }
      ],
      "name": "submitArtwork",
      "outputs": [
        {
          "internalType": "uint256",
          "name": "",
          "type": "uint256"
        }
      ],
      "stateMutability": "nonpayable",
      "type": "function"
    },
    {
      "inputs": [
        {
          "internalType": "uint256",
          "name": "artworkId",
          "type": "uint256"
        },
        {
          "internalType": "uint256",
          "name": "expertId",
          "type": "uint256"
        },
        {
          "internalType": "uint8",
          "name": "_authenticity",
          "type": "uint8"
        },
        {
          "internalType": "uint8",
          "name": "_confidence",
          "type": "uint8"
        }
      ],
      "name": "submitAuthentication",
      "outputs": [],
      "stateMutability": "nonpayable",
      "type": "function"
    },
    {
      "inputs": [
        {
          "internalType": "uint256",
          "name": "expertId",
          "type": "uint256"
        },
        {
          "internalType": "uint256",
          "name": "newSuccessRate",
          "type": "uint256"
        }
      ],
      "name": "updateExpertSuccessRate",
      "outputs": [],
      "stateMutability": "nonpayable",
      "type": "function"
    },
    {
      "inputs": [
        {
          "internalType": "uint256",
          "name": "expertId",
          "type": "uint256"
        }
      ],
      "name": "verifyExpert",
      "outputs": [],
      "stateMutability": "nonpayable",
      "type": "function"
    }
  ],
  "bytecode": "0x608060405234801561000f575f80fd5b5061018a6100ae604080516080810182525f808252602082018190529181018290526060810191909152506040805160808101825273687820221192c5b662b25367f70076a37bc79b6c815273848b0066793bcc60346da1f49049357399b8d595602082015273a02cda4ca3a71d7c46997716f4283aa851c2881291810191909152731364cbbf2cdf5032c47d8226a6f6fbd2afcdacac606082015290565b80517f9e7b61f58c47dc699ac88507c4f5bb9f121c03808c5676a8078fe583e464970080546001600160a01b03199081166001600160a01b039384161790915560208301517f9e7b61f58c47dc699ac88507c4f5bb9f121c03808c5676a8078fe583e46497018054831691841691909117905560408301517f9e7b61f58c47dc699ac88507c4f5bb9f121c03808c5676a8078fe583e46497028054831691841691909117905560608301517f9e7b61f58c47dc699ac88507c4f5bb9f121c03808c5676a8078fe583e46497038054909216921691909117905550565b5f80546001600160a01b0319163317905560018080556002556113a9806101b05f395ff3fe608060405234801561000f575f80fd5b5060043610610111575f3560e01c8063ab88d7d01161009e578063da1f12ab1161006e578063da1f12ab14610427578063dc89781f1461042f578063ea02a57214610442578063f1f201e81461044b578063f7b3242e146104dd575f80fd5b8063ab88d7d014610359578063b7425f4c14610378578063d199bf6614610401578063d716b31614610414575f80fd5b80634799e36d116100e45780634799e36d1461023f5780634b602673146102525780636b6510b5146103065780638da5cb5b146103265780639b19cd6a14610350575f80fd5b80631e1a9bff146101155780631e78f2cd1461013b57806327ad91c1146101ba57806331f6f480146101cf575b5f80fd5b610128610123366004611187565b6104f0565b6040519081526020015b60405180910390f35b61018b6101493660046111a7565b600560208181525f9384526040808520909152918352912080546001820154600283015460038401546004850154949095015492949193909260ff9091169086565b6040805196875260208701959095529385019290925260608401521515608083015260a082015260c001610132565b6101cd6101c83660046111c7565b6105ed565b005b6102156101dd3660046111c7565b5f90815260046020819052604090912060018101546003820154928201546005909201546001600160a01b039091169360ff90931692565b604080516001600160a01b0390951685529215156020850152918301526060820152608001610132565b6101cd61024d3660046111a7565b6106d6565b6102b86102603660046111c7565b600360208190525f91825260409091208054600182015460028301549383015460048401546005850154600686015460079096015494966001600160a01b03909416959394929360ff80841694610100909404169289565b60408051998a526001600160a01b0390981660208a01529688019590955260608701939093529015156080860152151560a085015260c084015260e083015261010082015261012001610132565b6103196103143660046111c7565b6107c2565b60405161013291906111de565b5f54610338906001600160a01b031681565b6040516001600160a01b039091168152602001610132565b61012860015481565b6101286103673660046111c7565b60076020525f908152604090205481565b6103ca6103863660046111c7565b600460208190525f918252604090912080546001820154600283015460038401549484015460059094015492946001600160a01b0390921693909260ff9092169186565b604080519687526001600160a01b0390951660208701529385019290925215156060840152608083015260a082015260c001610132565b6101cd61040f366004611221565b610821565b6101286104223660046111a7565b6109ae565b612711610128565b6101cd61043d36600461125a565b6109d9565b61012860025481565b6104a06104593660046111c7565b5f90815260036020526040902060018101546004820154600583015460068401546007909401546001600160a01b039093169460ff80841695610100909404169391929190565b604080516001600160a01b0390971687529415156020870152921515938501939093526060840152608083019190915260a082015260c001610132565b6101286104eb36600461129d565b610d79565b600280545f9182919082610503836112e0565b9190505590505f61051384610fc3565b6040805160c0810182528481523360208083019182528284018581525f606085018181526080860182815260a087018381528b8452600495869052979092209551865593516001860180546001600160a01b0319166001600160a01b0390921691909117905590516002850155915160038401805460ff1916911515919091179055905190820155905160059091015590506105ae81610fd8565b506105b98133610fe7565b50604051339083907f5d0ba44d8d1b5ab5a5376df97900717482c91f5501a518f55bc394c84259372a905f90a35092915050565b5f546001600160a01b0316331461061f5760405162461bcd60e51b815260040161061690611304565b60405180910390fd5b5f818152600460205260409020600101546001600160a01b031661067d5760405162461bcd60e51b8152602060048201526015602482015274115e1c195c9d08191bd95cc81b9bdd08195e1a5cdd605a1b6044820152606401610616565b5f8181526004602052604080822060038101805460ff19166001908117909155015490516001600160a01b039091169183917f5a9bb2162f5f899eb5457a95bce843895dec2330e1b3dfc04b3eb8fcf2d191009190a350565b5f546001600160a01b031633146106ff5760405162461bcd60e51b815260040161061690611304565b5f828152600460205260409020600101546001600160a01b031661075d5760405162461bcd60e51b8152602060048201526015602482015274115e1c195c9d08191bd95cc81b9bdd08195e1a5cdd605a1b6044820152606401610616565b60648111156107ae5760405162461bcd60e51b815260206004820152601a60248201527f537563636573732072617465206d75737420626520302d3130300000000000006044820152606401610616565b5f9182526004602052604090912060050155565b5f8181526006602090815260409182902080548351818402810184019094528084526060939283018282801561081557602002820191905f5260205f20905b815481526020019060010190808311610801575b50505050509050919050565b5f546001600160a01b0316331461084a5760405162461bcd60e51b815260040161061690611304565b5f83815260036020526040902060040154839060ff166108a55760405162461bcd60e51b8152602060048201526016602482015275105c9d1ddbdc9ac8191bd95cc81b9bdd08195e1a5cdd60521b6044820152606401610616565b5f8481526003602052604090206004810154610100900460ff16156109045760405162461bcd60e51b8152602060048201526015602482015274105b1c9958591e48185d5d1a195b9d1a58d85d1959605a1b6044820152606401610616565b6003816006015410156109595760405162461bcd60e51b815260206004820152601a60248201527f4e6f7420656e6f7567682061757468656e7469636174696f6e730000000000006044820152606401610616565b60048101805461ff0019166101001790556040805185151581526020810185905286917f7474431ddedcb890867a9d7e1579ee6892a47e5f49d4381b1c3b85db61ab5639910160405180910390a25050505050565b6006602052815f5260405f2081815481106109c7575f80fd5b905f5260205f20015f91509150505481565b5f8381526004602052604090206001015483906001600160a01b03163314610a345760405162461bcd60e51b815260206004820152600e60248201526d139bdd081d1a1948195e1c195c9d60921b6044820152606401610616565b5f8181526004602052604090206003015460ff16610a8a5760405162461bcd60e51b8152602060048201526013602482015272115e1c195c9d081b9bdd081d995c9a599a5959606a1b6044820152606401610616565b5f85815260036020526040902060040154859060ff16610ae55760405162461bcd60e51b8152602060048201526016602482015275105c9d1ddbdc9ac8191bd95cc81b9bdd08195e1a5cdd60521b6044820152606401610616565b60648460ff161115610b395760405162461bcd60e51b815260206004820152601a60248201527f41757468656e746963697479206d75737420626520302d3130300000000000006044820152606401610616565b60648360ff161115610b8d5760405162461bcd60e51b815260206004820152601860248201527f436f6e666964656e6365206d75737420626520302d31303000000000000000006044820152606401610616565b5f86815260056020908152604080832088845290915290206004015460ff1615610bed5760405162461bcd60e51b8152602060048201526011602482015270105b1c9958591e481cdd589b5a5d1d1959607a1b6044820152606401610616565b5f610bf785610fc3565b90505f610c0385610fc3565b90506040518060c001604052808981526020018881526020018381526020018281526020016001151581526020014281525060055f8a81526020019081526020015f205f8981526020019081526020015f205f820151815f01556020820151816001015560408201518160020155606082015181600301556080820151816004015f6101000a81548160ff02191690831515021790555060a0820151816005015590505060065f8981526020019081526020015f2087908060018154018082558091505060019003905f5260205f20015f909190919091505560035f8981526020019081526020015f206006015f815480929190610d00906112e0565b90915550505f878152600460208190526040822001805491610d21836112e0565b9190505550610d2f82610fd8565b50610d3981610fd8565b50604051879089907f8e4d321a0389d38ad7cc7e3f98c87f5d11e65fdd643574decde031c824a443db905f90a3610d6f88610ff9565b5050505050505050565b5f60648360ff161115610dce5760405162461bcd60e51b815260206004820152601760248201527f436f6e646974696f6e206d75737420626520302d3130300000000000000000006044820152606401610616565b60338210158015610de0575060648211155b610e2c5760405162461bcd60e51b815260206004820152601960248201527f436f6e73656e737573206d7573742062652035312d31303025000000000000006044820152606401610616565b600180545f9182610e3c836112e0565b9190505590505f610e4c8661101e565b90505f610e5886610fc3565b9050604051806101200160405280848152602001336001600160a01b031681526020018381526020018281526020016001151581526020015f151581526020014281526020015f81526020018681525060035f8581526020019081526020015f205f820151815f01556020820151816001015f6101000a8154816001600160a01b0302191690836001600160a01b0316021790555060408201518160020155606082015181600301556080820151816004015f6101000a81548160ff02191690831515021790555060a08201518160040160016101000a81548160ff02191690831515021790555060c0820151816005015560e082015181600601556101008201518160070155905050610f6b82610fd8565b50610f7581610fd8565b50610f808233610fe7565b50610f8b8133610fe7565b50604051339084907ffe3e60b45008017c2e2aab21edb7d09ad0dda5360752ccc1ef16118a162a27f0905f90a3509095945050505050565b5f610fd28260ff16600261102c565b92915050565b5f610fe382306110e9565b5090565b5f610ff283836110e9565b5090919050565b5f81815260036020819052604090912060068101549091111561101a575050565b5050565b5f610fd28263ffffffff1660045b7f9e7b61f58c47dc699ac88507c4f5bb9f121c03808c5676a8078fe583e464970154604051639cd07acb60e01b81525f917f9e7b61f58c47dc699ac88507c4f5bb9f121c03808c5676a8078fe583e4649700916001600160a01b0390911690639cd07acb906110a1908790879060040161132c565b6020604051808303815f875af11580156110bd573d5f803e3d5ffd5b505050506040513d601f19601f820116820180604052508101906110e1919061135c565b949350505050565b5f7f9e7b61f58c47dc699ac88507c4f5bb9f121c03808c5676a8078fe583e46497008054604051635ca4b5b160e11b8152600481018690526001600160a01b03858116602483015292935091169063b9496b62906044015f604051808303815f87803b158015611157575f80fd5b505af1158015611169573d5f803e3d5ffd5b50505050505050565b803560ff81168114611182575f80fd5b919050565b5f60208284031215611197575f80fd5b6111a082611172565b9392505050565b5f80604083850312156111b8575f80fd5b50508035926020909101359150565b5f602082840312156111d7575f80fd5b5035919050565b602080825282518282018190525f9190848201906040850190845b81811015611215578351835292840192918401916001016111f9565b50909695505050505050565b5f805f60608486031215611233575f80fd5b8335925060208401358015158114611249575f80fd5b929592945050506040919091013590565b5f805f806080858703121561126d575f80fd5b843593506020850135925061128460408601611172565b915061129260608601611172565b905092959194509250565b5f805f606084860312156112af575f80fd5b833563ffffffff811681146112c2575f80fd5b92506112d060208501611172565b9150604084013590509250925092565b5f600182016112fd57634e487b7160e01b5f52601160045260245ffd5b5060010190565b6020808252600e908201526d139bdd08185d5d1a1bdc9a5e995960921b604082015260600190565b828152604081016054831061134f57634e487b7160e01b5f52602160045260245ffd5b8260208301529392505050565b5f6020828403121561136c575f80fd5b505191905056fea26469706673582212205e4c21f01322355801d7133a7cd210d90c1e000ec0ba0d8023fda3acd3c9782d64736f6c63430008180033",
  "linkReferences": {},
  "deployedLinkReferences": {}
}